{
  "_format": "hh-sol-artifact-1",
  "contractName": "TipJar",
  "sourceName": "src/contracts/TipJar.sol",
  "abi": [
    {
      "inputs": [],
      "stateMutability": "nonpayable",
      "type": "constructor"
    },
    {
      "anonymous": false,
      "inputs": [
        {
          "indexed": true,
          "internalType": "address",
          "name": "from",
          "type": "address"
        },
        {
          "indexed": false,
          "internalType": "string",
          "name": "message",
          "type": "string"
        },
        {
          "indexed": false,
          "internalType": "string",
          "name": "name",
          "type": "string"
        },
        {
          "indexed": false,
          "internalType": "uint256",
          "name": "amount",
          "type": "uint256"
        }
      ],
      "name": "NewTip",
      "type": "event"
    },
    {
      "anonymous": false,
      "inputs": [
        {
          "indexed": false,
          "internalType": "uint256",
          "name": "amount",
          "type": "uint256"
        }
      ],
      "name": "NewWithdrawl",
      "type": "event"
    },
    {
      "inputs": [],
      "name": "getAllTips",
      "outputs": [
        {
          "components": [
            {
              "internalType": "address",
              "name": "sender",
              "type": "address"
            },
            {
              "internalType": "string",
              "name": "message",
              "type": "string"
            },
            {
              "internalType": "string",
              "name": "name",
              "type": "string"
            },
            {
              "internalType": "uint256",
              "name": "timestamp",
              "type": "uint256"
            },
            {
              "internalType": "uint256",
              "name": "amount",
              "type": "uint256"
            }
          ],
          "internalType": "struct TipJar.Tip[]",
          "name": "",
          "type": "tuple[]"
        }
      ],
      "stateMutability": "view",
      "type": "function"
    },
    {
      "inputs": [],
      "name": "owner",
      "outputs": [
        {
          "internalType": "address payable",
          "name": "",
          "type": "address"
        }
      ],
      "stateMutability": "view",
      "type": "function"
    },
    {
      "inputs": [
        {
          "internalType": "string",
          "name": "_message",
          "type": "string"
        },
        {
          "internalType": "string",
          "name": "_name",
          "type": "string"
        }
      ],
      "name": "sendTip",
      "outputs": [],
      "stateMutability": "payable",
      "type": "function"
    },
    {
      "inputs": [],
      "name": "totalTips",
      "outputs": [
        {
          "internalType": "uint256",
          "name": "",
          "type": "uint256"
        }
      ],
      "stateMutability": "view",
      "type": "function"
    },
    {
      "inputs": [],
      "name": "withdraw",
      "outputs": [],
      "stateMutability": "payable",
      "type": "function"
    }
  ],
  "bytecode": "0x608060405234801561001057600080fd5b5033600160006101000a81548173ffffffffffffffffffffffffffffffffffffffff021916908373ffffffffffffffffffffffffffffffffffffffff160217905550611118806100616000396000f3fe60806040526004361061004a5760003560e01c8063399ddbbd1461004f5780633ccfd60b1461007a57806354cafb04146100845780638da5cb5b146100a0578063990de8ae146100cb575b600080fd5b34801561005b57600080fd5b506100646100f6565b60405161007191906108d3565b60405180910390f35b6100826102e3565b005b61009e60048036038101906100999190610a3e565b6104c4565b005b3480156100ac57600080fd5b506100b561067e565b6040516100c29190610ad7565b60405180910390f35b3480156100d757600080fd5b506100e06106a4565b6040516100ed9190610b01565b60405180910390f35b60606002805480602002602001604051908101604052809291908181526020016000905b828210156102da57838290600052602060002090600502016040518060a00160405290816000820160009054906101000a900473ffffffffffffffffffffffffffffffffffffffff1673ffffffffffffffffffffffffffffffffffffffff1673ffffffffffffffffffffffffffffffffffffffff1681526020016001820180546101a390610b4b565b80601f01602080910402602001604051908101604052809291908181526020018280546101cf90610b4b565b801561021c5780601f106101f15761010080835404028352916020019161021c565b820191906000526020600020905b8154815290600101906020018083116101ff57829003601f168201915b5050505050815260200160028201805461023590610b4b565b80601f016020809104026020016040519081016040528092919081815260200182805461026190610b4b565b80156102ae5780601f10610283576101008083540402835291602001916102ae565b820191906000526020600020905b81548152906001019060200180831161029157829003601f168201915b50505050508152602001600382015481526020016004820154815250508152602001906001019061011a565b50505050905090565b3373ffffffffffffffffffffffffffffffffffffffff16600160009054906101000a900473ffffffffffffffffffffffffffffffffffffffff1673ffffffffffffffffffffffffffffffffffffffff1614610373576040517f08c379a000000000000000000000000000000000000000000000000000000000815260040161036a90610bd9565b60405180910390fd5b6000479050600081116103bb576040517f08c379a00000000000000000000000000000000000000000000000000000000081526004016103b290610c45565b60405180910390fd5b6000600160009054906101000a900473ffffffffffffffffffffffffffffffffffffffff1673ffffffffffffffffffffffffffffffffffffffff168260405161040390610c96565b60006040518083038185875af1925050503d8060008114610440576040519150601f19603f3d011682016040523d82523d6000602084013e610445565b606091505b5050905080610489576040517f08c379a000000000000000000000000000000000000000000000000000000000815260040161048090610cf7565b60405180910390fd5b7f8a904c8c85fa231796f243f36a175a566ff158b34bc9572146d834ff18f29075826040516104b89190610b01565b60405180910390a15050565b343373ffffffffffffffffffffffffffffffffffffffff1631101561051e576040517f08c379a000000000000000000000000000000000000000000000000000000000815260040161051590610d63565b60405180910390fd5b60016000808282546105309190610db2565b9250508190555060026040518060a001604052803373ffffffffffffffffffffffffffffffffffffffff16815260200184815260200183815260200142815260200134815250908060018154018082558091505060019003906000526020600020906005020160009091909190915060008201518160000160006101000a81548173ffffffffffffffffffffffffffffffffffffffff021916908373ffffffffffffffffffffffffffffffffffffffff16021790555060208201518160010190816105fb9190610f92565b5060408201518160020190816106119190610f92565b50606082015181600301556080820151816004015550503373ffffffffffffffffffffffffffffffffffffffff167fb1c1391b0c6c1e7244a4134896b4bc3f12d2c0cdfef990fac76eec58980a8baa8383346040516106729392919061109d565b60405180910390a25050565b600160009054906101000a900473ffffffffffffffffffffffffffffffffffffffff1681565b60005481565b600081519050919050565b600082825260208201905092915050565b6000819050602082019050919050565b600073ffffffffffffffffffffffffffffffffffffffff82169050919050565b6000610701826106d6565b9050919050565b610711816106f6565b82525050565b600081519050919050565b600082825260208201905092915050565b60005b83811015610751578082015181840152602081019050610736565b60008484015250505050565b6000601f19601f8301169050919050565b600061077982610717565b6107838185610722565b9350610793818560208601610733565b61079c8161075d565b840191505092915050565b6000819050919050565b6107ba816107a7565b82525050565b600060a0830160008301516107d86000860182610708565b50602083015184820360208601526107f0828261076e565b9150506040830151848203604086015261080a828261076e565b915050606083015161081f60608601826107b1565b50608083015161083260808601826107b1565b508091505092915050565b600061084983836107c0565b905092915050565b6000602082019050919050565b6000610869826106aa565b61087381856106b5565b935083602082028501610885856106c6565b8060005b858110156108c157848403895281516108a2858261083d565b94506108ad83610851565b925060208a01995050600181019050610889565b50829750879550505050505092915050565b600060208201905081810360008301526108ed818461085e565b905092915050565b6000604051905090565b600080fd5b600080fd5b600080fd5b600080fd5b7f4e487b7100000000000000000000000000000000000000000000000000000000600052604160045260246000fd5b61094b8261075d565b810181811067ffffffffffffffff8211171561096a57610969610913565b5b80604052505050565b600061097d6108f5565b90506109898282610942565b919050565b600067ffffffffffffffff8211156109a9576109a8610913565b5b6109b28261075d565b9050602081019050919050565b82818337600083830152505050565b60006109e16109dc8461098e565b610973565b9050828152602081018484840111156109fd576109fc61090e565b5b610a088482856109bf565b509392505050565b600082601f830112610a2557610a24610909565b5b8135610a358482602086016109ce565b91505092915050565b60008060408385031215610a5557610a546108ff565b5b600083013567ffffffffffffffff811115610a7357610a72610904565b5b610a7f85828601610a10565b925050602083013567ffffffffffffffff811115610aa057610a9f610904565b5b610aac85828601610a10565b9150509250929050565b6000610ac1826106d6565b9050919050565b610ad181610ab6565b82525050565b6000602082019050610aec6000830184610ac8565b92915050565b610afb816107a7565b82525050565b6000602082019050610b166000830184610af2565b92915050565b7f4e487b7100000000000000000000000000000000000000000000000000000000600052602260045260246000fd5b60006002820490506001821680610b6357607f821691505b602082108103610b7657610b75610b1c565b5b50919050565b600082825260208201905092915050565b7f63616c6c6572206973206e6f7420746865206f776e6572000000000000000000600082015250565b6000610bc3601783610b7c565b9150610bce82610b8d565b602082019050919050565b60006020820190508181036000830152610bf281610bb6565b9050919050565b7f596f752068617665206e6f20656874657220746f207769746864726177000000600082015250565b6000610c2f601d83610b7c565b9150610c3a82610bf9565b602082019050919050565b60006020820190508181036000830152610c5e81610c22565b9050919050565b600081905092915050565b50565b6000610c80600083610c65565b9150610c8b82610c70565b600082019050919050565b6000610ca182610c73565b9150819050919050565b7f5472616e73666572206661696c65640000000000000000000000000000000000600082015250565b6000610ce1600f83610b7c565b9150610cec82610cab565b602082019050919050565b60006020820190508181036000830152610d1081610cd4565b9050919050565b7f4e6f7420656e6f7567682066756e647300000000000000000000000000000000600082015250565b6000610d4d601083610b7c565b9150610d5882610d17565b602082019050919050565b60006020820190508181036000830152610d7c81610d40565b9050919050565b7f4e487b7100000000000000000000000000000000000000000000000000000000600052601160045260246000fd5b6000610dbd826107a7565b9150610dc8836107a7565b9250828201905080821115610de057610ddf610d83565b5b92915050565b60008190508160005260206000209050919050565b60006020601f8301049050919050565b600082821b905092915050565b600060088302610e487fffffffffffffffffffffffffffffffffffffffffffffffffffffffffffffffff82610e0b565b610e528683610e0b565b95508019841693508086168417925050509392505050565b6000819050919050565b6000610e8f610e8a610e85846107a7565b610e6a565b6107a7565b9050919050565b6000819050919050565b610ea983610e74565b610ebd610eb582610e96565b848454610e18565b825550505050565b600090565b610ed2610ec5565b610edd818484610ea0565b505050565b5b81811015610f0157610ef6600082610eca565b600181019050610ee3565b5050565b601f821115610f4657610f1781610de6565b610f2084610dfb565b81016020851015610f2f578190505b610f43610f3b85610dfb565b830182610ee2565b50505b505050565b600082821c905092915050565b6000610f6960001984600802610f4b565b1980831691505092915050565b6000610f828383610f58565b9150826002028217905092915050565b610f9b82610717565b67ffffffffffffffff811115610fb457610fb3610913565b5b610fbe8254610b4b565b610fc9828285610f05565b600060209050601f831160018114610ffc5760008415610fea578287015190505b610ff48582610f76565b86555061105c565b601f19841661100a86610de6565b60005b828110156110325784890151825560018201915060208501945060208101905061100d565b8683101561104f578489015161104b601f891682610f58565b8355505b6001600288020188555050505b505050505050565b600061106f82610717565b6110798185610b7c565b9350611089818560208601610733565b6110928161075d565b840191505092915050565b600060608201905081810360008301526110b78186611064565b905081810360208301526110cb8185611064565b90506110da6040830184610af2565b94935050505056fea2646970667358221220efefe0e311cce92f13503e4915c7571847fafc53e7f17968eced8c22057ce49864736f6c63430008110033",
  "linkReferences": {},
  "deployedLinkReferences": {}
}